:020000040800F2
:1000000098040020C90000088D0E0008050E0008A5
:1000100000000000000000000000000000000000E0
:10002000000000000000000000000000910E000829
:1000300000000000000000008F0E0008930E000872
:10004000DB00000800000000DB000008DB00000807
:10005000DB000008DB000008DB000008DB00000814
:1000600000000000DB000008DB000008DB000008E7
:10007000DB000008DB000008DB00000800000000D7
:10008000DB000008DB00000800000000DB000008C7
:10009000DB000008DB000008DB000008DB000008D4
:1000A000DB000008DB000008DB0000083D12000850
:1000B000DB0000080348854600F08EF80048004742
:1000C0002D13000898040020044880470448004786
:1000D000FEE7FEE7FEE7FEE7FEE7FEE7F70E0008B5
:1000E000B500000830B50B4601460020202201244F
:1000F00009E00D46D5409D4205D31D469540491B5C
:100100002546954040191546521E002DF1DC30BDA4
:10011000F0B51FB40646002082B005464024019188
:1001200000901BE0019922460F46304600F020F86F
:10013000049A059B801A994110D31046194622460D
:1001400000F039F8361A8F4101972246012000212C
:10015000009F00F030F838184D4100902046641E92
:100160000028DFDC019B00982946324607B0F0BD2D
:1001700010B5202A04DB0846203AD040002110BDEB
:100180000B46D340D0402024A21A91400843194680
:1001900010BDD2B201E00270401C491EFBD2704774
:1001A0000022F6E710B513460A4604461946FFF743
:1001B000F0FF204610BD10B5202A04DB0146203A8E
:1001C0009140002010BD914020239C1A0346E3403B
:1001D0001943904010BD0000064C0125064E05E075
:1001E000E36807CC2B430C3C98471034B442F7D358
:1001F000FFF764FF80130008A0130008704770B574
:100200000024014620314A78022A03D00421816368
:10021000012416E0026813680E25AB4313600268E0
:1002200013685B085B0013600122056C1346AB404A
:10023000C56B6B604A7000220A70416B002900D0C8
:100240008847204670BD000070B5044600F0D4F821
:100250000546601C02D004480078241800F0CCF851
:10026000401BA042FAD370BD00000020FCB5002363
:100270000124A1E027462A469F403A4073D04D68AA
:10028000012D05D0022D03D0112D01D0122D16D134
:1002900085680326AC465D00AE46AE406546B54374
:1002A000AC46CE687546AE4065462E4386604668CD
:1002B0000D79BE43ED06ED0F9D4035434560C668A0
:1002C0005F000325BD40AE46AE4335468E68BE4056
:1002D0002E43C6604E68022E01D0122E14D1DE08C5
:1002E000B60036180196366A5D07B446EE0E0F2545
:1002F000B54000966646AE43B4460D69009EB540D3
:1003000066462E43019D2E6206687546AE430D7902
:10031000AD07AD0FBD40354305604D68ED004AD5D2
:10032000284DAE692643AE61AD699E08ED07ED0F1D
:100330000095254DB6007519AC46AD689E07360F81
:100340000F27B740BD430927FF06B84201D1002758
:1003500010E01E4FB84201D101270BE01C4FB842FC
:1003600002D1022706E026E01A4FB84201D1032746
:1003700000E00527B7402F436546AF60164E35684D
:100380004F689543FF0300D51543356075684F6886
:100390009543BF0300D515437560B5684F68954315
:1003A000FF0200D51543B560F5684F689543BF025D
:1003B00000D51543F5605B1C0A681546DA4000D08D
:1003C00058E7FCBD00100240000001400004004856
:1003D00000080048000C0048000401404269134630
:1003E0000B401B0491430B4383617047002A01D0EB
:1003F00081617047816270470148806870470000E2
:1004000000000020024881680278891881607047E6
:100410000000002010B50648016810221143016059
:10042000002000F007F800F027F8002010BD0000C1
:100430000020024070B504460D4D7D202978C00093
:10044000FFF750FE01460B480068FFF74BFE00F037
:1004500043FB002809D1042C07D200222146401E6C
:1004600000F02AF800206C6070BD012070BD000013
:10047000000000200C00002008B508488169012216
:1004800011438161816911400091C26901040A43ED
:10049000C261C0690840009008BD00000010024021
:1004A000002805DBC106C90E01208840014908600B
:1004B0007047000000E100E010B500F0E9FE10BD5B
:1004C000F8B505460068354CC00352D5E0690026F2
:1004D000C00007D4E16920040143E161E169014002
:1004E000012600912E480168C90510D401688215C3
:1004F00011430160FFF780FF074604E0FFF77CFF30
:10050000C01B642824D826480068C005F6D5206A98
:1005100003273F02384020D06968394081421CD00F
:10052000206A226AB843012109040A432262226A2E
:100530008A4322622062C0070FD0FFF75DFF009060
:1005400008E0FFF759FF0099411A1648814201D986
:100550000320F8BD206A8007F3D5206A6968B84394
:1005600008432062002E04D0E16901200007814386
:10057000E1612878C00705D0206BA9688008800059
:10058000084320632878800605D5206B1021884316
:10059000E968084320630020F8BD00000010024015
:1005A0000070004088130000F8B50F46060059D0CF
:1005B0003A4D2868C007C00FB84209D228684008E1
:1005C0004000384328602868C007C00FB84249D1AE
:1005D0003068334C81070CD5400704D5606807218B
:1005E0000902084360606068F0218843B1680843ED
:1005F00060603078C00726D0706801280ED021686E
:1006000002280ED0890700292CDA61688908890040
:1006100001436160FFF7F0FE00900DE0216889035F
:10062000F1E78901EFE7FFF7E7FE0099411A1D485E
:10063000814201D90320F8BD60680C21084071682F
:1006400089008842EFD12868C007C00FB8420BD993
:10065000286840084000384328602868C007C00F59
:10066000B84201D00120F8BD3078400706D5606857
:10067000072109028843F1680843606000F028F808
:100680006168094A0906090F515CC84007490860BA
:100690000020FFF7CFFE0020F8BD00000020024040
:1006A0000010024088130000681300080C000020AE
:1006B0000448054900684968044A4905490F515CE6
:1006C000C84070470C00002000100240781300085A
:1006D00010B514A30FCB88B06C460FC415A30FCB75
:1006E0000FC4184A51680C200B4603401648042BCF
:1006F00016D0082B14D18B021B0F6C46E45CD26A17
:1007000004AB1207120F9A5CC90305D500231946E2
:10071000FFF7FEFC214601E020460C4900F0A0FD59
:1007200008B010BD02030405060708090A0B0C0DEA
:100730000E0F10100102030405060708090A0B0C2E
:100740000D0E0F100010024000127A0000093D004B
:10075000FEB5040070D02078DC4DC0074AD0686830
:100760000007800F012807D068680007800F022863
:1007700009D16868C00306D5286880033AD5606847
:100780000028E7D036E06168012914D001208004F8
:10079000002901D0052914D02A68012109048A43BF
:1007A0002A602968814329606068002816D0FFF715
:1007B00023FE06460EE0286801210904084328604C
:1007C000F2E7296801432960F5E7FFF715FE801B72
:1007D00064286ED828688003F7D50BE0FFF70CFE7D
:1007E000064604E0FFF708FE801B6428F1D828685D
:1007F0008003F7D420780126800700283CDA686857
:100800000007800F07D068680007800F022809D111
:100810006868C00306D42868800716D5E0680128F8
:100820000AD112E0E0680028286816D0304328601A
:10083000FFF7E2FD074605E043E1FFF7DDFDC01BE2
:100840000228C6D828688007F7D52868F821884389
:100850002169C900084328600EE040084000286074
:10086000FFF7CAFD074604E0FFF7C6FDC01B0228DC
:10087000AFD828688007F7D42078000722D5E06930
:100880000028686A0ED030436862FFF7B5FD07465E
:1008900004E0FFF7B1FDC01B02289AD8686A800700
:1008A000F7D50FE0400840006862FFF7A5FD074656
:1008B00005E09DE0FFF7A0FDC01B022889D8686A0B
:1008C0008007F7D4207804274007002860DA00204A
:1008D0000190E869C00008D4E969B8060143E961FC
:1008E000E969014001200091019079480168C9053A
:1008F00011D40168821511430160FFF77DFD00905E
:1009000005E0FFF779FD0099401A642870D8704817
:100910000068C005F5D5A06801280AD0002801D0DC
:10092000052810D0286A400840002862286AB84389
:1009300001E0286A30432862A068002812D0FFF73F
:100940005BFD00900AE0286A38432862F1E7FFF770
:1009500053FD0099411A5F48814249D8286A8007AF
:10096000F5D50DE0FFF748FD009006E0FFF744FDE8
:100970000099411A574881423AD8286A8007F5D42D
:100980000198002804D0E969012000078143E9614A
:100990002078C00635D5606901280CD0401D686BF1
:1009A00023D038436863686B400840006863FFF7F2
:1009B00023FD064622E0686B38436863686B30436A
:1009C0006863FFF719FD064604E0FFF715FD801B7D
:1009D00002285BD8686B8007F7D5686BF8218843DD
:1009E000A169C900084368630BE0B8436863F4E792
:1009F0004CE0FFF701FD801B022847D8686B800799
:100A0000F7D4206A00285ED069680907890F022997
:100A100042D0012636060228286805D0B043286057
:100A2000FFF7EAFC044633E0B0432860FFF7E4FC3C
:100A3000074604E0FFF7E0FCC01B022826D8286820
:100A40008001F7D4E86AE16A000900010843E8621E
:100A5000616AA06A084369683D2212049143084311
:100A60006860286830432860FFF7C6FC044604E04D
:100A7000FFF7C2FC001B022808D828688001F7D5C0
:100A800021E0FFF7B9FC001B022801D90320FEBDBD
:100A900028688001F5D416E00128F8D06868E96A72
:100AA00001221204636A02409A420AD10907E26AEB
:100AB000090F914205D10F2189040840A16A88429B
:100AC00001D00120FEBD0020FEBD0000001002404C
:100AD0000070004088130000094910B5401E88428C
:100AE00001D9012010BD074C60610321081F00F0EF
:100AF000CFFB0020A06107202061002010BD000076
:100B0000FFFFFF0000E000E070470000F8B502685A
:100B10000446D069116893684C4D06462E40202546
:100B2000002E68D0DE07F60FFF2721370F4037432E
:100B300075D0C70706D0CF0504D501271762E26F2D
:100B40003A43E267820708D5DA0706D0276802220F
:100B50003A62E26F04273A43E267420708D5DA07B0
:100B600006D0236804221A62E26F02231A43E26766
:100B7000020709D50A462A40324305D023680822D5
:100B80001A62E36F1343E367020508D54A0106D5ED
:100B900001222368D2021A62E26F2A43E267E26FFF
:100BA000002A30D0800606D5880604D5216E00299B
:100BB00001D020468847E06F21688968490602D441
:100BC0002821084224D0204600F036FA20688168A7
:100BD000490619D58168402291438160E06E002862
:100BE00012D01B494163E06EFFF709FB00280AD0D1
:100BF000E06E416B06E0830611D58B060FD5216EA2
:100C000012E020468847F8BD2046FFF77DFFF8BD7B
:100C10002046FFF779FF0020E067F8BDFFE70306F5
:100C200005D50B0603D5616E0029EAD1F5E740062C
:100C3000F3D54806F1D51168204640239943116049
:100C400065670021616600F0DCF8E6E70F08000048
:100C50002510000810B5040003D0606F002802D0F2
:100C600007E0012010BD002170200155204600F052
:100C700027F824206067206801684908490001605E
:100C8000204600F0E9F90128ECD0606A002802D083
:100C9000204600F031F9206841680122D2029143D8
:100CA0004160206881680822914381602068016862
:100CB000012211430160204600F084F910BD0000BC
:100CC00010B586B0044614216846FFF769FA174943
:100CD0002068884227D116488269012189030A4386
:100CE000826182690A4005924269C9000A434261F1
:100CF00040690840059003204002009002200190C6
:100D000000200290032003900120049009206946EE
:100D1000C006FFF7ABFA002211461B20FFF7CCFB01
:100D20001B20FFF7BDFB06B010BD000000380140DE
:100D300000100240FFB50446406F83B017460D46D1
:100D400020285CD1002D0AD0002F08D0A168C00156
:100D5000814207D12069002804D1E80702D0012090
:100D600007B0F0BD204660300290007C012846D0DC
:100D70000298012101740020E06721206067FFF7DD
:100D80003BFB264640360190378277820120A168DE
:100D90000003814202D12069002802D02F4600259D
:100DA00011E000270FE000228021204600F0F8F932
:100DB000002815D1002F15D02168387808857F1CB0
:100DC000708A401E7082708A019B002806980090ED
:100DD000E9D100224021204600F0E2F9002808D0A5
:100DE0000320BDE728882168C005C00D0885AD1C1B
:100DF000E6E720206067029900200874B0E702202F
:100E0000AEE77047FEE7000010B586B014216846D3
:100E1000FFF7C6F90E484269012149040A434261BD
:100E2000406909240840E40605900022202120465C
:100E3000FFF7DCFA202000900021012002910391AD
:100E4000019069462046FFF711FA06B010BD000078
:100E50000010024010B50C480A490160E121490226
:100E6000416000218160C16001618161C1610C222A
:100E7000016242614162FFF7EDFE002801D0FFF7F9
:100E8000BDF910BD003801401400002070477047C4
:100E9000704710B5FFF7B6FA10BD70B594B03021A9
:100EA0006846FFF77DF900240E94139410200994EE
:100EB000022504900D940F940520129401260095AC
:100EC000C0040C94109403960A90119408950B9406
:100ED0006846FFF73DFC07200C900E9401210D950C
:100EE0000F940CA8FFF760FB10A810961294FFF760
:100EF000E7FA14B070BD704710B5818CC90707D0F0
:100F000001684A6801235B049A43836A1A434A6072
:100F1000818C890707D501684A6801231B049A431D
:100F2000C36A1A434A60818C490707D501684A6839
:100F300001239B049A43036B1A434A60818C09077F
:100F400007D501684A680123DB039A43436B1A43C0
:100F50004A60818CC90607D50268916801231B038A
:100F60009943836B19439160818C890607D5016889
:100F70008A6801235B039A43C36B1A438A60818C9E
:100F8000490612D503685A6801210905046C8A4391
:100F900022435A60026C8A4207D1026851680323D7
:100FA0005B059943436C19435160818C090607D551
:100FB00001684A680123DB04806C9A4302434A605B
:100FC00010BD0000F8B500260446C667FFF714FA06
:100FD000054620680068124F000709D501212B46FD
:100FE000002249052046009700F0DAF800280DD1CC
:100FF0002068006840070BD501212B460022890597
:101000002046009700F0CCF8002801D00320F8BD5E
:1010100020206067A067603426740020F8BD0000BF
:10102000FFFFFF0110B5406A0022014640314A83AC
:101030004A82FFF769FD10BD01680A68FF2321336A
:101040009A430A6001688A68520852008A60202127
:10105000816700210166704770B504468068216988
:10106000E269084361690025114322680843116859
:10107000444B194001431160216848680322120360
:101080009043E26810434860A169206A22680843DF
:1010900091680B231B029943014391603A492068F0
:1010A000884210D13948006B8007800F11D0012889
:1010B00005D0022805D003280AD1022009E0042027
:1010C00007E0082005E03249884201D1002000E015
:1010D00010200122E169D2032E4E914228D100282E
:1010E00006D0022807D0042817D0082844D11AE0D7
:1010F000FFF7DEFA13E06168274A48088018FEF718
:10110000F1FF80B201461039B14235D82149491C5E
:1011100001400007400F084321E0FFF7D9FA61685A
:1011200040004A08EAE76168012248081204E5E73E
:10113000002806D0022807D0042813D008281BD185
:1011400016E0FFF7B5FA0FE06168144A480811E0AD
:10115000FEF7C8FF80B201461039B1420CD82168B1
:10116000C8600AE0FFF7B4FA61684A081018EFE7B0
:10117000616848088018EBE701250020206660665A
:10118000284670BDF369FFFF00380140001002409F
:1011900000440040EFFF00000024F40000127A0039
:1011A000FFB581B005460F46044660350A9E38E01B
:1011B000701C36D0FFF720F90499401AB04221D8AC
:1011C000002E1FD02068016849072AD5C069C04396
:1011D000000526D401202168C00208622068016849
:1011E000FF22A132914301602068816849084900CB
:1011F000816020206067A067E067002028740320DA
:1012000005B0F0BD20680168FF22A1329143016062
:101210002068816849084900816020206067A067D4
:10122000EBE72068C1693846884305D00021039860
:101230008142BDD00020E3E70121F8E710B5024864
:10124000FFF764FC10BD00001400002010B5024A36
:10125000024900F04EF810BD1113000810000020E4
:10126000F8B5040C8BB2264682B25E430D0C1046D4
:10127000370C5843360480190021794116466E43D5
:10128000370C36048019794126466E438919F8BD1A
:101290008307FF22DB0E9A408907090E9940002838
:1012A00008DB830809489B001B1818689043084313
:1012B000186070470007000F0838830804489B0037
:1012C0001B18D86990430843D861704700E400E0D8
:1012D00000ED00E002E008C8121F08C1002AFAD1A0
:1012E00070477047002001E001C1121F002AFBD1A6
:1012F0007047F8B516460F460446002503E0394608
:10130000B047641C6D1C20780028F8D12846F8BD31
:1013100013B5044B012269460348FFF70BFD009803
:101320001CBD0000FFFF000014000020FFF772F852
:10133000FFF7B3FDFFF768FDFFF78CFD07A0FFF790
:1013400085FF7D24E4000925ED062046FEF77CFF9D
:1013500020212846FFF742F8F7E700000A31313133
:10136000313131200D0A00000000000000000000B3
:10137000010203040607080900000000010203043B
:10138000A01300080000002014000000D412000880
:10139000B41300081400002084040000E4120008C4
:1013A00001000000040000000000000000127A00AC
:0413B0000000000039
:04000005080000B53A
:00000001FF
